:100000000C9434000C9451000C9451000C94510049
:100010000C9451000C9451000C9451000C9451001C
:100020000C9451000C9451000C9451000C9451000C
:100030000C9451000C9451000C94B0000C9451009D
:100040000C9451000C9451000C9451000C945100EC
:100050000C9451000C9451000C9451000C945100DC
:100060000C9451000C94510011241FBECFEFD8E026
:10007000DEBFCDBF11E0A0E0B1E0E0ECF4E002C0F3
:1000800005900D92A831B107D9F721E0A8E1B1E0C0
:1000900001C01D92AA34B207E1F70E94D3000C946C
:1000A0005E020C940000811541F0289A611539F028
:1000B0005F9A411531F05E9A08952898F7CF5F98BE
:1000C000F8CF5E9808958230910571F048F440E0D1
:1000D00061E0892B59F440E060E081E00C9453002A
:1000E000039731F040E001C041E060E080E0F6CFEE
:1000F00041E061E0F2CF8F929F92AF92BF92CF9298
:10010000DF92EF92FF92FC018181861771F061838B
:100110002283338344835583FF90EF90DF90CF9009
:10012000BF90AF909F908F900895C280D380E4805D
:10013000F58049015A018C189D08AE08BF0864017A
:10014000750199E1C916D104E104F10428F3908105
:10015000891711F380838115F9F281E08683DCCF62
:100160001F921FB61F9211248F939F93AF93BF933B
:100170008091460190914701A0914801B0914901B9
:100180000196A11DB11D8093460190934701A09354
:100190004801B0934901BF91AF919F918F911F90FA
:1001A0001FBE1F90189584B18C6384B985B1837C80
:1001B00085B9209A28988AB1806C8AB98BB18F73DF
:1001C0008BB955985D9A2198299A8AB1837E8AB90C
:1001D0008BB18C618BB980E480937C0087E880933D
:1001E0007A0082E084BD93E095BD99EF97BD80933E
:1001F0006E00789411E0C1E0D0E00AE08FB7F89487
:10020000C0904601D0904701E0904801F09049012C
:100210008FBF66274D99639561279601A70188E2F4
:1002200091E00E947B0066271999639561279601EA
:10023000A70181E291E00E947B0066274C996395BB
:1002400061279601A7018AE191E00E947B0020913D
:100250004501211129C089B18695827099274B9952
:100260009395892BE0911901EE0FEE0FE82B809307
:100270001901F0E0E95FFE4F808190911801890F2C
:1002800084306CF01092180180910001909101016E
:100290008530910508F40AC184E090E002C18D3FE9
:1002A0000CF4F4C08093180180912001811579F03D
:1002B0001092200121272093450110923301C09212
:1002C0002F01D0923001E0923101F0923201809101
:1002D0002E01811531F110922E0180914501811579
:1002E00001F1809100019091010184309105C9F0E4
:1002F0009C01215031092330310510F080E090E05D
:10030000FC01EE0FFF1FE35CFE4F20813181232BA8
:1003100011F4C083D183FC01E75CFE4F808181270B
:100320008083809127018115E1F01092270180914F
:1003300045018115B1F08091000190910101843057
:10034000910579F09C01215031092330310510F0DD
:1003500080E090E0880F991FFC01E35CFE4F108263
:10036000118280917C00807F806480937C008091EA
:100370007A00806480937A0080917A0086FDFCCFB9
:10038000209178003091790080913401909135016D
:10039000A0913601B091370146015701881A990A98
:1003A000AA0ABB0AC401D50136952795369527952B
:1003B000029FA001039F500D112446505F4F8417E8
:1003C0009507A105B10568F0C0923401D0923501BE
:1003D000E0923601F09237018091380181278093B5
:1003E0003801ADE3B1E0E9E3F1E025E030E08D91E3
:1003F0009D9140913801892B09F040818C2F022E6C
:1004000001C0880F0A94EAF795B1411509F453C069
:10041000892B85B92150310931962130310539F7C1
:10042000809100019091010120914501211559F120
:100430008430910541F140912F015091300160913C
:1004400031017091320146015701841A950AA60ABA
:10045000B70AA401B5014A3F51056105710568F06D
:1004600020913301C0922F01D0923001E0923101EE
:10047000F092320121272093330120913301211181
:1004800002C084E090E00E946300B8CE1092180190
:10049000809100019091010101978530910508F04C
:1004A000FBCE8093000190930101FECE8E5F9E4FA4
:1004B000FC018081F2CE80958923ABCFF894FFCFE9
:1004C0000400010203040000FF0100010000FFFF1F
:0804D0000000010001FF000023
:00000001FF
